:100000000C9446000C9486000C9458000C945800F4
:100010000C9458000C9458000C9458000C94580000
:100020000C9458000C9458000C9458000C945800F0
:100030000C9458000C9458000C9458000C945800E0
:100040000C9458000C9458000C9458000C945800D0
:100050000C9458000C9458000C9458000C945800C0
:100060000C9458000C9458000C9458000C945800B0
:100070000C9458000C9458000C9458000C945800A0
:100080000C9458000C9458000C94580011241FBE76
:10009000CFEFD0E1DEBFCDBF21E0A0E0B1E001C0F5
:1000A0001D92A230B207E1F70E9457040C947D0420
:1000B0000C940000CF93DF930F92CDB7DEB7498346
:1000C00041E00E94CF008981809300010F90DF9171
:1000D000CF91089590910001913019F0923021F064
:1000E000089541E00C94880140E00C9488019091BF
:1000F0000001913019F0923021F0089540E00C9405
:10010000880141E00C9488010C9498021F920F9290
:100110000FB60F9211240BB60F922F933F934F936C
:100120005F936F937F938F939F93AF93BF93EF935F
:10013000FF9341E051E067E080E00E94410280913E
:1001400001018130A0F021F1FF91EF91BF91AF91BA
:100150009F918F917F916F915F914F913F912F91DF
:100160000F900BBE0F900FBE0F901F90189560E080
:1001700083E00E946A002FEF89E698E121508040D9
:100180009040E1F700C0000081E080930101DCCFE6
:1001900060E083E00E94770010920101D5CF4130EA
:1001A00021F010F4873048F008958730E8F7E82F01
:1001B000F0E0E158FB4F0C947404E82FF0E0EA57AC
:1001C000FB4F0C9474048091610021E001C0220F68
:1001D0006A95EAF7822B80936100089582B121E04D
:1001E00001C0220F6A95EAF7822B82B9089581B384
:1001F00021E001C0220F6A95EAF7822B81BB0895A6
:1002000084B321E001C0220F6A95EAF7822B84BBF8
:10021000089587B321E001C0220F6A95EAF7822B87
:1002200087BB08958AB321E001C0220F6A95EAF7DF
:10023000822B8ABB08958091640021E001C0220FC7
:100240006A95EAF7822B80936400089520916100FB
:1002500081E001C0880F6A95EAF780958223809338
:100260006100089522B181E001C0880F6A95EAF724
:100270008095822382B9089521B381E001C0880F5F
:100280006A95EAF78095822381BB089524B381E0C3
:1002900001C0880F6A95EAF78095822384BB089590
:1002A00027B381E001C0880F6A95EAF78095822321
:1002B00087BB08952AB381E001C0880F6A95EAF7E9
:1002C000809582238ABB08952091640081E001C05B
:1002D000880F6A95EAF780958223809364000895D9
:1002E000873040F4E82FF0E0E357FB4F0C947404A0
:1002F0006093640008956093610008956ABB089557
:1003000067BB089564BB089561BB089562B9089501
:10031000413021F010F4873048F008958730E8F735
:10032000E82FF0E0EC56FB4F0C947404E82FF0E05B
:10033000E556FB4F0C9474048091620021E001C0EB
:10034000220F6A95EAF7822B80936200089583B1A9
:1003500021E001C0220F6A95EAF7822B83B9089544
:1003600082B321E001C0220F6A95EAF7822B82BB9B
:10037000089585B321E001C0220F6A95EAF7822B28
:1003800085BB089588B321E001C0220F6A95EAF782
:10039000822B88BB08958BB321E001C0220F6A95A0
:1003A000EAF7822B8BBB08958091650021E001C0A4
:1003B000220F6A95EAF7822B8093650008952091B9
:1003C000620081E001C0880F6A95EAF78095822378
:1003D00080936200089523B181E001C0880F6A957F
:1003E000EAF78095822383B9089522B381E001C0A2
:1003F000880F6A95EAF78095822382BB089525B31A
:1004000081E001C0880F6A95EAF78095822385BB59
:10041000089528B381E001C0880F6A95EAF78095B6
:10042000822388BB08952BB381E001C0880F6A95B1
:10043000EAF7809582238BBB08952091650081E0C7
:1004400001C0880F6A95EAF7809582238093650042
:100450000895873040F4E82FF0E0EE55FB4F0C9400
:1004600074046093650008956093620008956BBB07
:10047000089568BB089565BB089562BB089563B98C
:10048000089541155105B9F08730A8F4683098F403
:100490008430F9F088F48230D1F08330A1F08130DB
:1004A000A1F486B390E002C0959587956A95E2F72E
:1004B0008170FA0180830895853019F0809163007E
:1004C000F1CF80B1EFCF80B3EDCF89B3EBCF83B362
:1004D000E9CF81B1E7CF61157105A9F0873098F4B4
:1004E000843091F050F48230B9F0833089F081305B
:1004F000B9F486B3FB01808308958530A9F080911B
:100500006300FB018083089581B1FB01808308951E
:1005100080B3FB018083089583B3FB01808308953A
:1005200089B3FB018083089580B1FB018083089526
:100530008730C8F421E001C0220F6A95EAF78430C1
:1005400099F050F48230A1F08330D1F08130A1F4E1
:1005500087B3822787BB08958530B1F0809164000E
:10056000822780936400089582B1822782B908951A
:1005700084B3822784BB08958AB382278ABB0895F7
:1005800081B3822781BB0895809161008227809387
:1005900061000895883098F4E82FF0E0E755FB4FAC
:1005A0000C94740409F4D5C0623009F41AC16330A4
:1005B00031F48AB782608ABF8AB781608ABF0895A2
:1005C000613008F057C08AB7877F8ABF8AB78B7FB0
:1005D0008ABF0895613030F78AB78D7F8ABF8AB7A6
:1005E0008E7F8ABF0895611163C080916A008F7702
:1005F00080936A0080916A008F7B80936A000895DF
:10060000611167C080916A008F7D80936A0080913C
:100610006A008F7E80936A000895611179C080918D
:100620006A00877F80936A0080916A008B7F809345
:100630006A000895613008F05DC08AB78F778ABF7D
:100640008AB78F7B8ABF0895611173C080916A0059
:100650008D7F80936A0080916A008E7F80936A000C
:1006600008956130B0F48AB78F7D8ABF8AB78F7ED4
:100670008ABF089509F4AEC0623009F4C0C0633087
:1006800009F09DCF8AB788608ABF8AB784608ABF25
:10069000089509F498C0623009F4AAC0633009F0E3
:1006A0008ECF8AB780628ABF8AB780618ABF089579
:1006B000623009F45CC0633009F081CF80916A0038
:1006C000806880936A0080916A00806480936A00E9
:1006D0000895623009F46CC0633009F070CF8091E6
:1006E0006A00806280936A0080916A0080618093D2
:1006F0006A000895A9F1623009F488C0633009F0F6
:100700005ECF8AB780688ABF8AB780648ABF08953F
:10071000623009F442C0633009F051CF80916A0021
:10072000886080936A0080916A00846080936A0088
:100730000895623039F1633009F041CF80916A0049
:10074000826080936A0080916A00816080936A0071
:1007500008958AB78D7F8ABF8AB781608ABF08955E
:100760008AB78F778ABF8AB780648ABF08958091DD
:100770006A00806880936A0080916A008F7B809312
:100780006A00089580916A00826080936A00809177
:100790006A008E7F80936A00089580916A00886065
:1007A00080936A0080916A008B7F80936A0008952D
:1007B00080916A00806280936A0080916A008F7ED7
:1007C00080936A0008958AB78F7D8ABF8AB7806157
:1007D0008ABF08958AB7877F8ABF8AB784608ABF35
:1007E00008958AB782608ABF8AB78E7F8ABF0895CC
:1007F0008AB780628ABF8AB78F7E8ABF08958AB718
:1008000088608ABF8AB78B7F8ABF08958AB780685D
:100810008ABF8AB78F7B8ABF0895883048F4E82F53
:10082000F0E0EF54FB4F89B70C947404806889BFE3
:100830000895806489BF0895816089BF08958260AA
:1008400089BF0895846089BF0895886089BF08952D
:10085000806189BF0895806289BF0895883048F417
:10086000E82FF0E0E754FB4F89B70C9474048F77BE
:1008700089BF08958F7B89BF08958E7F89BF0895B2
:100880008D7F89BF08958B7F89BF0895877F89BF3A
:1008900008958F7E89BF08958F7D89BF08958FB792
:1008A00080688FBF08958FB78F778FBF089541E01D
:1008B00060E080E00E945A0041E060E083E00E9436
:1008C0005A0061E087E00E94CA0280E00E940D04A5
:1008D00040E067E080E00E94CF000E944F0460E0AB
:1008E00080E00E946A00FBCFEE0FFF1F0024001C77
:1008F0000BBE0790F691E02D0994F894FFCF1201FA
:1009000009010001F700EE00E3001B015A0150014C
:1009100046013C013201260164017E018001820111
:10092000840186017B017801CB01C201B901B001CC
:10093000A7019C01D40113020902FF01F501EB019B
:10094000DF011D02370239023B023D023F02340241
:100950003102F30200030D0324031A033103E00202
:10096000EA021C041F042204250428042B04190491
:1009700016043D0440044304460449044C043A046C
:0209800037043A
:00000001FF
