:100000000C9446000C9465000C9465000C946500FB
:100010000C9465000C9465000C9465000C946500CC
:100020000C9465000C9465000C9465000C946500BC
:100030000C9465000C9465000C9465000C946500AC
:100040000C9465000C9465000C9465000C9465009C
:100050000C9465000C9465000C9465000C9465008C
:100060000C9465000C9465000C9465000C9465007C
:100070000C9465000C9465000C9465000C9465006C
:100080000C9465000C9465000C94650011241FBE4F
:10009000CFEFD0E1DEBFCDBF11E0A0E0B1E0E0E006
:1000A000FFE000E00BBF02C007900D92AA31B1073C
:1000B000D9F721E0AAE1B1E001C01D92AB31B2074E
:1000C000E1F70E94CF050C943C070C940000CF93FD
:1000D000DF930F92CDB7DEB7898341E060E080E027
:1000E0000E94000340E061E080E00E94000369811B
:1000F00082E00E94A10341E062E080E00E940003F0
:100100008FEC97E00197F1F700C0000040E062E05B
:1001100080E00F90DF91CF910C940003CF93DF9399
:100120000F92CDB7DEB7898340E060E080E00E94A7
:10013000000340E061E080E00E940003698182E00A
:100140000E94A10341E062E080E00E9400038FEC86
:1001500097E00197F1F700C0000040E062E080E026
:100160000F90DF91CF910C940003613009F0089556
:100170000C946700613009F008950C948E00813072
:1001800009F0089541E060E080E00E94470241E00C
:1001900061E080E00E94470241E062E080E00E946E
:1001A00047026FEF82E00E94E8022FEB8AED90E0B9
:1001B000215080409040E1F700C0000088E30E9499
:1001C0008E008FEC97E00197F1F700C000008EE001
:1001D0000E948E008FEC97E00197F1F700C00000BD
:1001E00081E00E948E008FE99FE00197F1F700C047
:1001F000000086E00E948E008FEC97E00197F1F7F7
:1002000000C0000008950F931F93CF938C010097B7
:1002100071F0FC018081811551F0C0E00E946700FF
:10022000CF5FF801EC0FF11D80818111F7CFCF91E5
:100230001F910F910895813048F029F480E4860FD2
:1002400080680C948E0080E80C948E00862F806865
:100250000C948E001F93CF93DF93D82F162F811508
:1002600079F18F3F09F450C0C0E03DEC2C2F220FF4
:10027000220F2C0F220FD39F912D11249695969526
:100280009695C92FCC0FCC0FC90FCC0F8D2F8C1B7F
:10029000C82FC20F8D2FD92F8A3040F7C11561F0BA
:1002A0009DEC06C0C99FC12D1124C695C695C69563
:1002B000113061F0CA30B0F7DF91CF911F910895EE
:1002C00080E3DF91CF911F910C9467001DECC19FDB
:1002D000812D1124869586958695982F990F990FD3
:1002E000980F990F8C2F891B805D0E9467008C2FBF
:1002F000C19FC12D1124C695C695C6958A3038F781
:10030000DF91CF911F910895C0E080E20E946700C5
:10031000CF5FEC2FF0E0E050FF4F80818111F6CFEE
:10032000A3CFCF93DF930F92CDB7DEB7498341E0E0
:100330000E944702898180931A010F90DF91CF912B
:10034000089590911A01913019F0923021F008959A
:1003500041E00C94000340E00C94000390911A01DA
:10036000913019F0923021F0089540E00C94000390
:1003700041E00C9400030C94100481E00E94BF0043
:1003800040E060E085E00E94470280E00E94410278
:1003900061E080E00E941B0161E08DE091E00E943D
:1003A00003012FEF89E698E1215080409040E1F76A
:1003B00000C00000089580E00E943602BC0180E089
:1003C00090E00E94410626EF38E24CE950E40E949A
:1003D000A7060E9412069B01ADECBCEC0E94FA0538
:1003E0009695879596958795969587950895CF9339
:1003F000DF9300D000D00F92CDB7DEB749835A8388
:100400006B837C838D834130D8F43F983E98513084
:10041000F1F038F18B818130F1F035988C818130A9
:10042000F1F0339896B1987F8D81892B86B9379AF0
:100430000F900F900F900F900F90DF91CF91089534
:1004400091F0433021F73F9A3E9A513011F73D9A8F
:100450008B81813011F7359A8C81813011F7339A75
:10046000E1CF3D98D7CF3F983E9AD1CF97B1907EBC
:10047000892B87B9369A86B1349A84B125B1922FE7
:10048000089597B1907E892B87B9369A08954130A7
:1004900021F010F4873048F008958730E8F7E82F0E
:1004A000F0E0E25CF84F0C940906E82FF0E0EB5B1B
:1004B000F84F0C9409068091610021E001C0220FE1
:1004C0006A95EAF7822B80936100089582B121E05A
:1004D00001C0220F6A95EAF7822B82B9089581B391
:1004E00021E001C0220F6A95EAF7822B81BB0895B3
:1004F00084B321E001C0220F6A95EAF7822B84BB06
:10050000089587B321E001C0220F6A95EAF7822B94
:1005100087BB08958AB321E001C0220F6A95EAF7EC
:10052000822B8ABB08958091640021E001C0220FD4
:100530006A95EAF7822B8093640008952091610008
:1005400081E001C0880F6A95EAF780958223809345
:100550006100089522B181E001C0880F6A95EAF731
:100560008095822382B9089521B381E001C0880F6C
:100570006A95EAF78095822381BB089524B381E0D0
:1005800001C0880F6A95EAF78095822384BB08959D
:1005900027B381E001C0880F6A95EAF7809582232E
:1005A00087BB08952AB381E001C0880F6A95EAF7F6
:1005B000809582238ABB08952091640081E001C068
:1005C000880F6A95EAF780958223809364000895E6
:1005D000873040F4E82FF0E0E45BF84F0C94090614
:1005E0006093640008956093610008956ABB089564
:1005F00067BB089564BB089561BB089562B908950F
:10060000413021F010F4873048F008958730E8F742
:10061000E82FF0E0ED5AF84F0C940906E82FF0E0CF
:10062000E65AF84F0C9409068091620021E001C05F
:10063000220F6A95EAF7822B80936200089583B1B6
:1006400021E001C0220F6A95EAF7822B83B9089551
:1006500082B321E001C0220F6A95EAF7822B82BBA8
:10066000089585B321E001C0220F6A95EAF7822B35
:1006700085BB089588B321E001C0220F6A95EAF78F
:10068000822B88BB08958BB321E001C0220F6A95AD
:10069000EAF7822B8BBB08958091650021E001C0B1
:1006A000220F6A95EAF7822B8093650008952091C6
:1006B000620081E001C0880F6A95EAF78095822385
:1006C00080936200089523B181E001C0880F6A958C
:1006D000EAF78095822383B9089522B381E001C0AF
:1006E000880F6A95EAF78095822382BB089525B327
:1006F00081E001C0880F6A95EAF78095822385BB67
:10070000089528B381E001C0880F6A95EAF78095C3
:10071000822388BB08952BB381E001C0880F6A95BE
:10072000EAF7809582238BBB08952091650081E0D4
:1007300001C0880F6A95EAF780958223809365004F
:100740000895873040F4E82FF0E0EF59F84F0C940B
:1007500009066093650008956093620008956BBB7D
:10076000089568BB089565BB089562BB089563B999
:10077000089541155105B9F08730A8F4683098F410
:100780008430F9F088F48230D1F08330A1F08130E8
:10079000A1F486B390E002C0959587956A95E2F73B
:1007A0008170FA0180830895853019F0809163008B
:1007B000F1CF80B1EFCF80B3EDCF89B3EBCF83B36F
:1007C000E9CF81B1E7CF61157105A9F0873098F4C1
:1007D000843091F050F48230B9F0833089F0813068
:1007E000B9F486B3FB01808308958530A9F0809128
:1007F0006300FB018083089581B1FB01808308952C
:1008000080B3FB018083089583B3FB018083089547
:1008100089B3FB018083089580B1FB018083089533
:100820008730C8F421E001C0220F6A95EAF78430CE
:1008300099F050F48230A1F08330D1F08130A1F4EE
:1008400087B3822787BB08958530B1F0809164001B
:10085000822780936400089582B1822782B9089527
:1008600084B3822784BB08958AB382278ABB089504
:1008700081B3822781BB0895809161008227809394
:1008800061000895883098F4E82FF0E0E859F84FB7
:100890000C94090609F4D5C0623009F41AC163301A
:1008A00031F48AB782608ABF8AB781608ABF0895AF
:1008B000613008F057C08AB7877F8ABF8AB78B7FBD
:1008C0008ABF0895613030F78AB78D7F8ABF8AB7B3
:1008D0008E7F8ABF0895611163C080916A008F770F
:1008E00080936A0080916A008F7B80936A000895EC
:1008F000611167C080916A008F7D80936A0080914A
:100900006A008F7E80936A000895611179C080919A
:100910006A00877F80936A0080916A008B7F809352
:100920006A000895613008F05DC08AB78F778ABF8A
:100930008AB78F7B8ABF0895611173C080916A0066
:100940008D7F80936A0080916A008E7F80936A0019
:1009500008956130B0F48AB78F7D8ABF8AB78F7EE1
:100960008ABF089509F4AEC0623009F4C0C0633094
:1009700009F09DCF8AB788608ABF8AB784608ABF32
:10098000089509F498C0623009F4AAC0633009F0F0
:100990008ECF8AB780628ABF8AB780618ABF089586
:1009A000623009F45CC0633009F081CF80916A0045
:1009B000806880936A0080916A00806480936A00F6
:1009C0000895623009F46CC0633009F070CF8091F3
:1009D0006A00806280936A0080916A0080618093DF
:1009E0006A000895A9F1623009F488C0633009F003
:1009F0005ECF8AB780688ABF8AB780648ABF08954D
:100A0000623009F442C0633009F051CF80916A002E
:100A1000886080936A0080916A00846080936A0095
:100A20000895623039F1633009F041CF80916A0056
:100A3000826080936A0080916A00816080936A007E
:100A400008958AB78D7F8ABF8AB781608ABF08956B
:100A50008AB78F778ABF8AB780648ABF08958091EA
:100A60006A00806880936A0080916A008F7B80931F
:100A70006A00089580916A00826080936A00809184
:100A80006A008E7F80936A00089580916A00886072
:100A900080936A0080916A008B7F80936A0008953A
:100AA00080916A00806280936A0080916A008F7EE4
:100AB00080936A0008958AB78F7D8ABF8AB7806164
:100AC0008ABF08958AB7877F8ABF8AB784608ABF42
:100AD00008958AB782608ABF8AB78E7F8ABF0895D9
:100AE0008AB780628ABF8AB78F7E8ABF08958AB725
:100AF00088608ABF8AB78B7F8ABF08958AB780686B
:100B00008ABF8AB78F7B8ABF0895883048F4E82F60
:100B1000F0E0E059F84F89B70C940906806889BF66
:100B20000895806489BF0895816089BF08958260B7
:100B300089BF0895846089BF0895886089BF08953A
:100B4000806189BF0895806289BF0895883048F424
:100B5000E82FF0E0E858F84F89B70C9409068F7732
:100B600089BF08958F7B89BF08958E7F89BF0895BF
:100B70008D7F89BF08958B7F89BF0895877F89BF47
:100B800008958F7E89BF08958F7D89BF08958FB79F
:100B900080688FBF08958FB78F778FBF089581E0EA
:100BA0000E94BF0061E083E70E94B50061E084E13C
:100BB00091E00E9403012FEF83ED90E321508040EC
:100BC0009040E1F700C0000060E081E00E941B015E
:100BD00061E08AE30E942A012FEF83ED90E3215028
:100BE00080409040E1F700C0000061E081E00E9499
:100BF000BA00D8CFA29FB001B39FC001A39F700DD0
:100C0000811D1124911DB29F700D811D1124911D14
:100C10000895EE0FFF1F0024001C0BBE0790F691F5
:100C2000E02D09940E94860688F09F5798F0B92F0E
:100C30009927B751B0F0E1F0660F771F881F991F11
:100C40001AF0BA95C9F714C0B13091F00E94A0060D
:100C5000B1E008950C94A006672F782F8827B85F1D
:100C600039F0B93FCCF3869577956795B395D9F769
:100C70003EF490958095709561957F4F8F4F9F4F73
:100C80000895E89409C097FB3EF49095809570957F
:100C900061957F4F8F4F9F4F9923A9F0F92F96E9C8
:100CA000BB279395F695879577956795B795F1113D
:100CB000F8CFFAF4BB0F11F460FF1BC06F5F7F4FDA
:100CC0008F4F9F4F16C0882311F096E911C07723EC
:100CD00021F09EE8872F762F05C0662371F096E8F5
:100CE000862F70E060E02AF09A95660F771F881FC4
:100CF000DAF7880F9695879597F9089557FD9058DC
:100D0000440F551F59F05F3F71F04795880F97FBCF
:100D1000991F61F09F3F79F0879508951216130689
:100D20001406551FF2CF4695F1DF08C016161706B8
:100D30001806991FF1CF86957105610508940895ED
:100D4000E894BB2766277727CB0197F908950E947F
:100D5000BA060C942B070E941D0738F00E94240746
:100D600020F0952311F00C9414070C941A07112409
:100D70000C94A1060E947E0670F3959FC1F3950F17
:100D800050E0551F629FF001729FBB27F00DB11D0F
:100D9000639FAA27F00DB11DAA1F649F6627B00D9F
:100DA000A11D661F829F2227B00DA11D621F739F88
:100DB000B00DA11D621F839FA00D611D221F749F96
:100DC0003327A00D611D231F849F600D211D822FDD
:100DD000762F6A2F11249F5750409AF0F1F0882304
:100DE0004AF0EE0FFF1FBB1F661F771F881F915031
:100DF0005040A9F79E3F510580F00C9414070C94C5
:100E0000A1065F3FE4F3983ED4F386957795679506
:100E1000B795F795E7959F5FC1F7FE2B880F911D5A
:100E20009695879597F9089597F99F6780E870E000
:100E300060E008959FEF80EC089500240A94161650
:100E4000170618060906089500240A9412161306B8
:100E5000140605060895092E0394000C11F4882346
:100E600052F0BB0F40F4BF2B11F460FF04C06F5F62
:100E70007F4F8F4F9F4F0895F894FFCF8A028102D2
:100E800078026F0266025B029302D202C802BE02BF
:100E9000B402AA029E02DC02F602F802FA02FC0286
:100EA000FE02F302F00243033A03310328031F0357
:100EB00014034C038B03810377036D036303570310
:100EC0009503AF03B103B303B503B703AC03A903A1
:100ED0006B04780485049C049204A90458046204F9
:100EE000940597059A059D05A005A30591058E0516
:100EF000B505B805BB05BE05C105C405B205AF05FE
:100F00002063616E74206265203232350053454E95
:0A0F1000534F5200616C6D61000048
:00000001FF
