:100000000C9446000C9465000C9465000C946500FB
:100010000C9465000C9465000C9465000C946500CC
:100020000C9465000C9465000C9465000C94220AF5
:100030000C944F0A0C947C0A0C94A90A0C94650049
:100040000C9465000C9465000C9465000C9465009C
:100050000C9465000C9465000C9465000C9465008C
:100060000C94D60A0C9465000C9465000C94650001
:100070000C9465000C9465000C9465000C9465006C
:100080000C9465000C9465000C94650011241FBE4F
:10009000CFEFD0E1DEBFCDBF11E0A0E0B1E0E6E9F7
:1000A000FCE100E00BBF02C007900D92A431B10744
:1000B000D9F721E0A4E1B1E001C01D92A933B20754
:1000C000E1F70E94030B0C94F70D0C940000CF9302
:1000D000DF930F92CDB7DEB7898341E060E080E027
:1000E0000E94570440E061E080E00E94570469816B
:1000F00082E00E94F80441E062E080E00E94570440
:100100008FEC97E00197F1F700C0000040E062E05B
:1001100080E00F90DF91CF910C945704CF93DF9341
:100120000F92CDB7DEB7898340E060E080E00E94A7
:10013000570440E061E080E00E945704698182E05A
:100140000E94F80441E062E080E00E9457048FECD6
:1001500097E00197F1F700C0000040E062E080E026
:100160000F90DF91CF910C945704613009F00895FE
:100170000C946700613009F008950C948E00813072
:1001800009F0089541E060E080E00E949E0341E0B4
:1001900061E080E00E949E0341E062E080E00E9416
:1001A0009E036FEF82E00E943F042FEB8AED90E008
:1001B000215080409040E1F700C0000088E30E9499
:1001C0008E008FEC97E00197F1F700C000008EE001
:1001D0000E948E008FEC97E00197F1F700C00000BD
:1001E00081E00E948E008FE99FE00197F1F700C047
:1001F000000086E00E948E008FEC97E00197F1F7F7
:1002000000C0000008950F931F93CF938C010097B7
:1002100071F0FC018081811551F0C0E00E946700FF
:10022000CF5FF801EC0FF11D80818111F7CFCF91E5
:100230001F910F910895813048F029F480E4860FD2
:1002400080680C948E0080E80C948E00862F806865
:100250000C948E004F925F926F927F928F929F923A
:10026000AF92BF92CF92DF92EF92FF92CF936B014A
:100270007C01C42FC114D104E104F10409F459C074
:100280005CF48DE20E946700F094E094D094C094F6
:10029000C11CD11CE11CF11C80E090E0BC013B01C1
:1002A000EAE04E2E512C4B015C01880C991CAA1CD3
:1002B000BB1C880C991CAA1CBB1C860E971EA81E72
:1002C000B91E880C991CAA1CBB1CB601C70192015F
:1002D000A3010E94C30B680D791D8A1D9B1D690136
:1002E0007A01C114D104E104F104E9F600977040E9
:1002F000604089F03AE0C32ED12CE12CF12CC130C2
:1003000041F19601A7010E94C30BB901CA010097F0
:1003100070406040A1F7CF91FF90EF90DF90CF90B9
:10032000BF90AF909F908F907F906F905F904F9015
:10033000089580E3CF91FF90EF90DF90CF90BF9032
:10034000AF909F908F907F906F905F904F900C94A4
:1003500067002AE0822E912CA12CB12C9401A501DA
:100360000E94C30BD22EE32EF42EC52F80E3860FFE
:100370000E9467006D2D7E2D8F2D9C2F0097704061
:10038000604061F7C8CFCF93DF930F92CDB7DEB750
:10039000498341E00E949E038981809314010F905C
:1003A000DF91CF91089590911401913019F092301E
:1003B00021F0089541E00C94570440E00C94570458
:1003C00090911401913019F0923021F0089540E09D
:1003D0000C94570441E00C9457040C946705CF9398
:1003E000DF9300D000D00F92CDB7DEB740E060E0E1
:1003F00085E00E949E0385E0E0E0F1E0DE011196D9
:1004000001900D928A95E1F749815A816B817C8137
:100410008D810F900F900F900F900F90DF91CF91E3
:100420000C944E0380E00E948D03BC0180E090E0BC
:100430000E94FC0C26EF38E24CE950E40E94620D69
:100440000E94CD0C9B01ADECBCEC0E947E0B9695FE
:1004500087959695879596958795089580911B0128
:1004600090911C01A0911D01B0911E010196A11D4A
:10047000B11D80931B0190931C01A0931D01B093AB
:100480001E01089586B527B5922F209115012111DF
:1004900013C090931A018093190110921B011092BE
:1004A0001C0110921D0110921E0181E08093150124
:1004B0008EB58F7B8EBD08959093180180931701A0
:1004C00010921601109215018EB580648EBD87B70B
:1004D0008F7D87BF0895EF92FF920F931F93CF9365
:1004E000DF93CDB7DEB72C970FB6F894DEBF0FBE03
:1004F000CDBFFE0131968CE0DF011D928A95E9F7B0
:10050000E980FF24F39401E011E021E03E814F8176
:10051000588569857A858B859C850E94260780E0B1
:1005200090E00E94570962E472E083E00E94F009C3
:100530006EE272E080E00E94F00941E065E083E055
:100540000E949E0340E064E083E00E949E0382E0FC
:100550002C960FB6F894DEBF0FBECDBFDF91CF91C2
:100560001F910F91FF90EF900C944C090F931F93E4
:100570001092150110921A0110921901109218018F
:100580001092170110921B0110921C0110921D0174
:1005900010921E0181E08093160187B7806287BFA9
:1005A00041E065E083E00E9457042AE12A95F1F7D3
:1005B00000C040E065E083E00E945704809116018E
:1005C000811509F467C0A0E0B0E0CD0106C0883A0B
:1005D00021E69207A105B10559F00196A11DB11DB3
:1005E000E2E0EA95F1F700C0209116012111EFCF6A
:1005F00027B72F7D27BF40911701509118012091F7
:10060000190130911A014217530780F140911701E7
:10061000509118012091190130911A01421B530B7E
:1006200060E070E000911B0110911C0120911D0100
:1006300030911E0110979146884A39F1980110E0D7
:1006400000E0C801D901840F951FA61FB71F9C01A8
:10065000AD01A7E5B1E00E94EB0BA80122E939E06A
:100660000E94A10BC9011F910F910895409117019C
:10067000509118012091190130911A0161E070E048
:10068000421B530B61097109CDCF80E090E01F91AF
:100690000F910895A0E0B0E0CD01AACFCF93DF93F2
:1006A00000D000D00F92CDB7DEB749835A836B8359
:1006B0007C838D834130D8F43F983E985130F1F0DF
:1006C00038F18B818130F1F035988C818130F1F0F7
:1006D000339896B1987F8D81892B86B9379A0F9080
:1006E0000F900F900F900F90DF91CF91089591F0A0
:1006F000433021F73F9A3E9A513011F73D9A8B8152
:10070000813011F7359A8C81813011F7339AE1CF1E
:100710003D98D7CF3F983E9AD1CF97B1907E892B05
:1007200087B9369A86B1349A84B125B1922F08954B
:1007300097B1907E892B87B9369A0895413021F080
:1007400010F4873048F008958730E8F7E82FF0E09C
:10075000E750F24F0C94E20BE82FF0E0E050F24F3C
:100760000C94E20B8091610021E001C0220F6A9598
:10077000EAF7822B80936100089582B121E001C0E5
:10078000220F6A95EAF7822B82B9089581B321E09E
:1007900001C0220F6A95EAF7822B81BB089584B3CA
:1007A00021E001C0220F6A95EAF7822B84BB0895ED
:1007B00087B321E001C0220F6A95EAF7822B87BB3D
:1007C00008958AB321E001C0220F6A95EAF7822BCF
:1007D0008ABB08958091640021E001C0220F6A95D0
:1007E000EAF7822B8093640008952091610081E0F4
:1007F00001C0880F6A95EAF7809582238093610093
:10080000089522B181E001C0880F6A95EAF78095CA
:10081000822382B9089521B381E001C0880F6A95CF
:10082000EAF78095822381BB089524B381E001C05B
:10083000880F6A95EAF78095822384BB089527B3D1
:1008400081E001C0880F6A95EAF78095822387BB13
:1008500008952AB381E001C0880F6A95EAF7809570
:1008600082238ABB08952091640081E001C0880F33
:100870006A95EAF780958223809364000895873013
:1008800040F4E82FF0E0E95FF14F0C94E20B609345
:10089000640008956093610008956ABB089567BB82
:1008A000089564BB089561BB089562B9089541300D
:1008B00021F010F4873048F008958730E8F7E82FEA
:1008C000F0E0E25FF14F0C94E20BE82FF0E0EB5E1A
:1008D000F14F0C94E20B8091620021E001C0220FE5
:1008E0006A95EAF7822B80936200089583B121E034
:1008F00001C0220F6A95EAF7822B83B9089582B36B
:1009000021E001C0220F6A95EAF7822B82BB08958D
:1009100085B321E001C0220F6A95EAF7822B85BBDF
:10092000089588B321E001C0220F6A95EAF7822B6F
:1009300088BB08958BB321E001C0220F6A95EAF7C6
:10094000822B8BBB08958091650021E001C0220FAE
:100950006A95EAF7822B80936500089520916200E2
:1009600081E001C0880F6A95EAF780958223809321
:100970006200089523B181E001C0880F6A95EAF70B
:100980008095822383B9089522B381E001C0880F46
:100990006A95EAF78095822382BB089525B381E0AA
:1009A00001C0880F6A95EAF78095822385BB089578
:1009B00028B381E001C0880F6A95EAF78095822309
:1009C00088BB08952BB381E001C0880F6A95EAF7D0
:1009D000809582238BBB08952091650081E001C042
:1009E000880F6A95EAF780958223809365000895C1
:1009F000873040F4E82FF0E0E45EF14F0C94E20B16
:100A00006093650008956093620008956BBB08953C
:100A100068BB089565BB089562BB089563B90895E6
:100A200041155105B9F08730A8F4683098F4843046
:100A3000F9F088F48230D1F08330A1F08130A1F454
:100A400086B390E002C0959587956A95E2F781702C
:100A5000FA0180830895853019F080916300F1CF09
:100A600080B1EFCF80B3EDCF89B3EBCF83B3E9CFC4
:100A700081B1E7CF61157105A9F0873098F4843012
:100A800091F050F48230B9F0833089F08130B9F4BC
:100A900086B3FB01808308958530A9F080916300BF
:100AA000FB018083089581B1FB018083089580B3A9
:100AB000FB018083089583B3FB018083089589B38C
:100AC000FB018083089580B1FB0180830895873006
:100AD000C8F421E001C0220F6A95EAF7843099F04A
:100AE00050F48230A1F08330D1F08130A1F487B38B
:100AF000822787BB08958530B1F0809164008227FA
:100B000080936400089582B1822782B9089584B3E6
:100B1000822784BB08958AB382278ABB089581B354
:100B2000822781BB089580916100822780936100B4
:100B30000895883098F4E82FF0E0ED5DF14F0C94C3
:100B4000E20B09F4D5C0623009F41AC1633031F404
:100B50008AB782608ABF8AB781608ABF0895613090
:100B600008F057C08AB7877F8ABF8AB78B7F8ABF52
:100B70000895613030F78AB78D7F8ABF8AB78E7F3C
:100B80008ABF0895611163C080916A008F77809356
:100B90006A0080916A008F7B80936A0008956111DA
:100BA00067C080916A008F7D80936A0080916A009F
:100BB0008F7E80936A000895611179C080916A00E8
:100BC000877F80936A0080916A008B7F80936A00A0
:100BD0000895613008F05DC08AB78F778ABF8AB701
:100BE0008F7B8ABF0895611173C080916A008D7FE9
:100BF00080936A0080916A008E7F80936A000895D6
:100C00006130B0F48AB78F7D8ABF8AB78F7E8ABF82
:100C1000089509F4AEC0623009F4C0C0633009F031
:100C20009DCF8AB788608ABF8AB784608ABF0895DB
:100C300009F498C0623009F4AAC0633009F08ECF7D
:100C40008AB780628ABF8AB780618ABF089562309E
:100C500009F45CC0633009F081CF80916A0080683C
:100C600080936A0080916A00806480936A0008958E
:100C7000623009F46CC0633009F070CF80916A0073
:100C8000806280936A0080916A00806180936A002C
:100C90000895A9F1623009F488C0633009F05ECF8D
:100CA0008AB780688ABF8AB780648ABF0895623035
:100CB00009F442C0633009F051CF80916A00886026
:100CC00080936A0080916A00846080936A0008952E
:100CD000623039F1633009F041CF80916A0082605F
:100CE00080936A0080916A00816080936A00089511
:100CF0008AB78D7F8ABF8AB781608ABF08958AB715
:100D00008F778ABF8AB780648ABF089580916A000E
:100D1000806880936A0080916A008F7B80936A006C
:100D2000089580916A00826080936A0080916A00D1
:100D30008E7F80936A00089580916A008860809316
:100D40006A0080916A008B7F80936A000895809189
:100D50006A00806280936A0080916A008F7E80932F
:100D60006A0008958AB78F7D8ABF8AB780618ABF7B
:100D700008958AB7877F8ABF8AB784608ABF08953B
:100D80008AB782608ABF8AB78E7F8ABF08958AB782
:100D900080628ABF8AB78F7E8ABF08958AB78860CB
:100DA0008ABF8AB78B7F8ABF08958AB780688ABF57
:100DB0008AB78F7B8ABF0895883048F4E82FF0E027
:100DC000E55DF14F89B70C94E20B806889BF089507
:100DD000806489BF0895816089BF0895826089BF5A
:100DE0000895846089BF0895886089BF08958061EF
:100DF00089BF0895806289BF0895883048F4E82F3C
:100E0000F0E0ED5CF14F89B70C94E20B8F7789BF6E
:100E100008958F7B89BF08958E7F89BF08958D7F48
:100E200089BF08958B7F89BF0895877F89BF089503
:100E30008F7E89BF08958F7D89BF08958FB78068A1
:100E40008FBF08958FB78F778FBF0895EF92FF926E
:100E50000F931F93CF93DF93CDB7DEB72C970FB6C9
:100E6000F894DEBF0FBECDBFEE2DE982BF2DFA8212
:100E70000B831C83F22F2D83232F3E834F835887B0
:100E800069877A878B879C87F13071F1F230F9F0AE
:100E9000B130C1F198F00130B1F018F48EB58F7B0C
:100EA0008EBD2C960FB6F894DEBF0FBECDBFDF917E
:100EB000CF911F910F91FF90EF9008958EB58F778E
:100EC0008EBD013051F78EB580648EBDEACF9B8513
:100ED0003C858EB58F7E8EBDE850E830C8F6F0E0D8
:100EE000E55CF14F0C94E20B942F352FAB018EB5DE
:100EF0008F7E8EBDE83060F6F0E0ED5BF14F8EB591
:100F00000C94E20B8EB580688EBDC5CF88608EBD17
:100F10008FB582608FBD8FB58E7F8FBD213008F079
:100F2000A5C18FB580688FBD8FB58F7B8FBD1092A7
:100F30002701109228011092290110922A01109283
:100F40002B0110922C0110922D0110922E011BBC2E
:100F50001ABC8FEF80931F0181E0809320011092D3
:100F6000210110922201109223011092240110926B
:100F70002501109226018CCF88608EBD8FB58D7FA4
:100F80008FBD8FB581608FBD213008F040C18FB516
:100F900080688FBD8FB58F7B8FBD10922701109217
:100FA00028011092290110922A0110922B0110920F
:100FB0002C0110922D0110922E011BBC1ABC8FEF38
:100FC00080931F0110922001CACF88608EBD8FB51B
:100FD0008D7F8FBD8FB58E7F8FBD3BBD9ABD87B78F
:100FE000806187BF55CF877F8EBD8FB582608FBDF3
:100FF0008FB581608FBD213008F0FEC08FB580684D
:101000008FBD8FB58F7B8FBD109227011092280165
:101010001092290110922A0110922B0110922C019A
:1010200010922D0110922E011BBC1ABC8FEF8093E1
:101030001F0183E092CF877F8EBD8FB582608FBD09
:101040008FB58E7F8FBD213008F0F7C08FB58068D7
:101050008FBD8FB58F7B8FBD1BBC1ABC8FEF80936C
:10106000270181E0809328011092290110922A0122
:1010700010922B0110922C0110922D0110922E0132
:1010800007CF877F7ACF877F8EBD8FB58D7F8FBD4E
:101090008FB58E7F8FBD5DBD6CBD87B7846087BF08
:1010A000F7CE8860A1CF8EB588608EBD8FB5826087
:1010B0008FBD8FB581608FBD213008F092C08FB594
:1010C00080688FBD8FB58F7B8FBD109227011092E6
:1010D00028011092290110922A0110922B011092DE
:1010E0002C0110922D0110922E011BBC1ABC8FEF07
:1010F00080931F0132CF8EB588608EBD8FB5826020
:101100008FBD8FB58E7F8FBD213008F08BC08FB51E
:1011100080688FBD8FB58F7B8FBD10922701109295
:1011200028011092290110922A0110922B0110928D
:101130002C0110922D0110922E011BBC1ABC8FEFB6
:1011400080931F01809320011092210110922201AF
:101150001092230110922401109225011092260171
:1011600037BD96BD87B7806287BF92CE8EB5886047
:101170008EBD8FB58D7F8FBD8FB58E7F8FBDF0CF2C
:101180008EB5877F92CF8EB5877FB7CF8EB5877F9D
:101190008EBD8FB58D7F8CCF8EB5877F8EBD8FB581
:1011A0008D7F8FBD8FB58E7F8FBD213008F069C0D8
:1011B0008FB580688FBD8FB58F7B8FBD1092270153
:1011C000109228011092290110922A0110922B01ED
:1011D00010922C0110922D0110922E011BBC1ABCF2
:1011E000BFCF09F082CF8FB580688FBD8FB5806487
:1011F0008FBD209327016BCF09F016CF8FB5806884
:101200008FBD8FB580648FBD20932701FFCE09F07D
:10121000D4CE8FB580688FBD8FB580648FBD20938D
:101220002701BDCE09F089CF8FB580688FBD8FB5FE
:1012300080648FBD2093270172CF09F00DCF8FB549
:1012400080688FBD8FB580648FBD20931F01109281
:10125000200110922101109222011092230110927C
:1012600024011092250110922601F6CE09F06FCECE
:101270008FB580688FBD8FB580648FBD20932701A7
:1012800058CE09F0ABCF8FB580688FBD8FB5806425
:101290008FBD2093270194CF811521F09EB5987FB3
:1012A000892B8EBD08958EB5887F8EBD08959DBD16
:1012B0008CBD08959BBD8ABD0895AF92BF92CF9219
:1012C000DF92EF92FF920F931F93CF93DF930F92D2
:1012D000CDB7DEB7E82F8536B8F5209127013091DC
:1012E00028014091290150912A0160912B017091B0
:1012F0002C0180912D0190912E01A0E00E94AD0C57
:1013000079F5A0901F01B0902001C0902101D090EC
:101310002201E0902301F090240100912501109119
:1013200026012E2F30E040E050E0BA01CA010E94B1
:10133000F60BF4E6AF2EB12CC12CD12C7601860130
:101340000E94500C1BBC2ABD0F90DF91CF911F91C2
:101350000F91FF90EF90DF90CF90BF90AF900895E6
:1013600020912701309128014091290150912A01B3
:1013700060912B0170912C0180912D0190912E0193
:10138000A1E00E94AD0C11F020E0DCCF80911F01A4
:101390008983B0902001C0902101D0902201E0907B
:1013A0002301F09024010091250110912601A82E1F
:1013B0002E2F30E040E050E0BA01CA010E94F60B47
:1013C000E4E6AE2EB12CC12CD12C760186010E9410
:1013D000500C8981821B282FB5CF97BD86BD0895FB
:1013E000813040F46115710561F0609337017093AD
:1013F0003801089539F08230A9F0843059F08330F3
:10140000C9F0089561157105E1F36093350170939A
:101410003601089561157105A1F360933101709350
:10142000320108956115710561F360933301709382
:10143000340108956115710521F360932F017093B4
:10144000300108951F920F920FB60F9211240BB620
:101450000F922F933F934F935F936F937F938F934D
:101460009F93AF93BF93EF93FF93E0912F01F09180
:101470003001309709F00995FF91EF91BF91AF913D
:101480009F918F917F916F915F914F913F912F919C
:101490000F900BBE0F900FBE0F901F9018951F92CC
:1014A0000F920FB60F9211240BB60F922F933F930A
:1014B0004F935F936F937F938F939F93AF93BF935C
:1014C000EF93FF93E0913501F0913601309709F0E9
:1014D0000995FF91EF91BF91AF919F918F917F916E
:1014E0006F915F914F913F912F910F900BBE0F9095
:1014F0000FBE0F901F9018951F920F920FB60F926C
:1015000011240BB60F922F933F934F935F936F93DA
:101510007F938F939F93AF93BF93EF93FF93E0914C
:101520003301F0913401309709F00995FF91EF9163
:10153000BF91AF919F918F917F916F915F914F91EB
:101540003F912F910F900BBE0F900FBE0F901F90E9
:1015500018951F920F920FB60F9211240BB60F928F
:101560002F933F934F935F936F937F938F939F93AB
:10157000AF93BF93EF93FF93E0913701F091380160
:10158000309709F00995FF91EF91BF91AF919F912D
:101590008F917F916F915F914F913F912F910F901C
:1015A0000BBE0F900FBE0F901F9018951F920F92B9
:1015B0000FB60F9211240BB60F922F933F934F93B8
:1015C0005F936F937F938F939F93AF93BF93EF93AB
:1015D000FF93E0913101F0913201309709F00995C4
:1015E000FF91EF91BF91AF919F918F917F916F91FB
:1015F0005F914F913F912F910F900BBE0F900FBEB7
:101600000F901F90189581E00E94BF000E946B020E
:101610000E941E074DECC42E5CECF52EEC2C65E010
:10162000D62E0AE010E014C0BE0180E090E041E058
:101630000E942A0161E080E191E00E9403012FEF06
:1016400084E39CE0215080409040E1F700C000001E
:101650000E94B602EC0160E080E00E941B0161E0A4
:1016600085E091E00E940301C436D105E8F29E01B5
:101670003695279536952795ABE7B4E10E947E0B0A
:1016800096958795BC0180E090E041E00E942A0198
:101690008C2F8F709C2F92959F70980F8D2F8F702D
:1016A000980F8D2F82958F70980F9C9D812D1124FE
:1016B000282F269526958C77820F981BC91BD10958
:1016C000CE9D9001CF9D300DDE9D300D1124422F17
:1016D000417050E0D49EE001D59ED00D1124C90F79
:1016E000D11DC90196958795B8010E948D0BBC014B
:1016F00080E090E041E00E942A0196CFA29FB001D5
:10170000B39FC001A39F700D811D1124911DB29F35
:10171000700D811D1124911D089597FB072E16F45D
:10172000009407D077FD09D00E94B90C07FC05D0C2
:101730003EF4909581959F4F0895709561957F4FE8
:101740000895A1E21A2EAA1BBB1BFD010DC0AA1F02
:10175000BB1FEE1FFF1FA217B307E407F50720F01A
:10176000A21BB30BE40BF50B661F771F881F991F95
:101770001A9469F760957095809590959B01AC01DE
:10178000BD01CF010895052E97FB1EF400940E9421
:10179000DA0B57FD07D00E94A10B07FC03D04EF4D3
:1017A0000C94DA0B50954095309521953F4F4F4F53
:1017B0005F4F089590958095709561957F4F8F4FFD
:1017C0009F4F0895EE0FFF1F0024001C0BBE0790D3
:1017D000F691E02D09940E947E0BA59F900DB49F79
:1017E000900DA49F800D911D11240895DF93CF9338
:1017F0001F930F939A9DF02D219FF00D8B9DF00D5F
:101800008A9DE02DF10D039FF00D029FE00DF11D6B
:101810004E9DE00DF11D5E9DF00D4F9DF00D7F93EF
:101820006F93BF92AF925F934F93D5010E947E0B4F
:101830008B01AC01D7010E947E0BEB01E80FF91F71
:10184000D6010E94450C2F913F91D6010E947E0B3C
:10185000C60FD71FE81FF91FAF91BF910E94450C1B
:101860002F913F910E947E0BC60FD71FE81FF91FD3
:10187000D6010E947E0BE60FF71F9801BE01CF0133
:101880000F911F91CF91DF9108950E947E0B460F1B
:10189000571FC81FD91F08F431960895689401C0D6
:1018A000E8948F929F92CF93DF930E945C0CDF911C
:1018B000CF919F908F90089588249924F401E4019A
:1018C000B0E49F93AA279A158B049C04ED05FE05AE
:1018D000CF05D007A10798F4AD2FDC2FCF2FFE2F17
:1018E000E92D982C892E982F872F762F652F542F2E
:1018F000432F322F2227B85031F7BF9127C01B2E1C
:10190000BF91BB27220F331F441F551F661F771F30
:10191000881F991F881C991CEE1FFF1FCC1FDD1FFD
:10192000AA1FBB1F8A149B04EC05FD05CE05DF052D
:10193000A007B10748F08A189B08EC09FD09CE09F9
:10194000DF09A00BB10B21601A94E1F62EF494018B
:10195000AF01BE01CD01000C08950024A7FD009445
:101960002A17300540055005600570058005900573
:101970000895AA1BBB1B51E107C0AA1FBB1FA617D6
:10198000B70710F0A61BB70B881F991F5A95A9F728
:1019900080959095BC01CD0108950E94410D88F07D
:1019A0009F5798F0B92F9927B751B0F0E1F0660F23
:1019B000771F881F991F1AF0BA95C9F714C0B13064
:1019C00091F00E945B0DB1E008950C945B0D672FC0
:1019D000782F8827B85F39F0B93FCCF38695779593
:1019E0006795B395D9F73EF490958095709561957C
:1019F0007F4F8F4F9F4F0895E89409C097FB3EF4A7
:101A000090958095709561957F4F8F4F9F4F99234B
:101A1000A9F0F92F96E9BB279395F69587957795C9
:101A20006795B795F111F8CFFAF4BB0F11F460FF89
:101A30001BC06F5F7F4F8F4F9F4F16C0882311F0E1
:101A400096E911C0772321F09EE8872F762F05C0F5
:101A5000662371F096E8862F70E060E02AF09A9590
:101A6000660F771F881FDAF7880F9695879597F985
:101A7000089557FD9058440F551F59F05F3F71F07E
:101A80004795880F97FB991F61F09F3F79F08795E5
:101A90000895121613061406551FF2CF4695F1DF6E
:101AA00008C0161617061806991FF1CF86957105FE
:101AB000610508940895E894BB2766277727CB0132
:101AC00097F908950E94750D0C94E60D0E94D80DAB
:101AD00038F00E94DF0D20F0952311F00C94CF0D0B
:101AE0000C94D50D11240C945C0D0E94390D70F3EB
:101AF000959FC1F3950F50E0551F629FF001729FB3
:101B0000BB27F00DB11D639FAA27F00DB11DAA1FC1
:101B1000649F6627B00DA11D661F829F2227B00D0E
:101B2000A11D621F739FB00DA11D621F839FA00D99
:101B3000611D221F749F3327A00D611D231F849FE9
:101B4000600D211D822F762F6A2F11249F57504040
:101B50009AF0F1F088234AF0EE0FFF1FBB1F661FBB
:101B6000771F881F91505040A9F79E3F510580F084
:101B70000C94CF0D0C945C0D5F3FE4F3983ED4F3CE
:101B8000869577956795B795F795E7959F5FC1F728
:101B9000FE2B880F911D9695879597F9089597F9D3
:101BA0009F6780E870E060E008959FEF80EC089503
:101BB00000240A941616170618060906089500242C
:101BC0000A9412161306140605060895092E0394A6
:101BD000000C11F4882352F0BB0F40F4BF2B11F41A
:101BE00060FF04C06F5F7F4F8F4F9F4F0895F89441
:101BF000FFCFE103D803CF03C603BD03B203EA035B
:101C000029041F0415040B040104F50333044D04D7
:101C10004F045104530455044A0447049A049104A0
:101C200088047F0476046B04A304E204D804CE0481
:101C3000C404BA04AE04EC04060508050A050C0544
:101C40000E0503050005C205CF05DC05F305E90512
:101C50000006AF05B905EB06EE06F106F406F70639
:101C6000FA06E806E5060C070F071207150718071E
:101C70001B0709070607CC08C608C308C008B60832
:101C800048077B085308430841081B08F307E5078A
:061C9000BC0786075108A5
:101C9600010000000744697374616E63653A2000B1
:041CA60020636D004A
:00000001FF
