:100000000C942A000C9434000C9434000C943400AA
:100010000C9434000C9434000C9434000C94340090
:100020000C9434000C9434000C9434000C94340080
:100030000C9434000C9434000C9434000C94340070
:100040000C9434000C9434000C9434000C94340060
:100050000C94340011241FBECFE5D8E0DEBFCDBF25
:100060000E942A010C943D010C9400008430C0F4DD
:100070006830B0F44130A9F098F421E001C0220FBB
:100080006A95EAF72095823039F1833031F081307A
:1000900039F18AB382238ABB089581B3822381BB5D
:1000A000089521E001C0220F6A95EAF7823061F0DD
:1000B000833031F0813061F08AB3822B8ABB08959E
:1000C00081B3822B81BB089584B3822B84BB0895B6
:1000D00087B3822B87BB089584B3822384BB0895A2
:1000E00087B3822387BB0895823049F020F48115BD
:1000F00041F067BB0895833031F461BB089564BB60
:1001000008956ABB089508958430C0F46830B0F44F
:100110004130A9F098F421E001C0220F6A95EAF776
:100120002095823039F1833031F0813039F18BB351
:1001300082238BBB089582B3822382BB089521E082
:1001400001C0220F6A95EAF7823061F0833031F006
:10015000813061F08BB3822B8BBB089582B3822BED
:1001600082BB089585B3822B85BB089588B3822B0B
:1001700088BB089585B3822385BB089588B3822305
:1001800088BB0895823049F020F4811541F068BBA6
:100190000895833031F462BB089565BB08956BBB4D
:1001A0000895089541155105A1F0843090F4683008
:1001B00080F4823099F0833079F0813059F486B33D
:1001C00090E002C0959587956A95E2F78170FA01F3
:1001D0008083089589B3F4CF80B3F2CF83B3F0CF97
:1001E0006115710571F0823091F030F4811559F08C
:1001F00086B3FB0180830895833021F480B3FB0133
:1002000080830895089589B3FB018083089583B3A3
:10021000FB01808308958430A0F4683090F421E0DD
:1002200001C0220F6A95EAF7823061F0833031F025
:10023000813061F08BB382278BBB089582B3822714
:1002400082BB089585B3822785BB089588B3822732
:1002500088BB089541E060E081E00E94360060E0E4
:1002600081E00E940B012FEF84E39CE0215080404D
:0E0270009040E1F700C00000F2CFF894FFCFFD
:00000001FF
