:100000000C942A000C943C000C943C000C943C0092
:100010000C943C000C943C000C943C000C943C0070
:100020000C943C000C943C000C94F2010C941902CA
:100030000C943C000C943C000C943C000C943C0050
:100040000C943C000C943C000C943C000C943C0040
:100050000C943C0011241FBECFE5D8E0DEBFCDBF1D
:1000600020E0A0E6B0E001C01D92A536B207E1F79E
:100070000E9440020C9496020C94000040E00C9404
:100080005200CF93DF9300D0CDB7DEB749835A83B8
:10009000AE014F5F5F4F0E94EE000F900F90DF9117
:1000A000CF9108958430C0F46830B0F44130A9F0A5
:1000B00098F421E001C0220F6A95EAF7209582307A
:1000C00039F1833031F0813039F18AB382238ABB30
:1000D000089581B3822381BB089521E001C0220FDE
:1000E0006A95EAF7823061F0833031F0813061F057
:1000F0008AB3822B8ABB089581B3822B81BB08957A
:1001000084B3822B84BB089587B3822B87BB089569
:1001100084B3822384BB089587B3822387BB089569
:10012000823049F020F4811541F067BB0895833097
:1001300031F461BB089564BB08956ABB08950895C6
:100140008430C0F46830B0F44130A9F098F421E074
:1001500001C0220F6A95EAF72095823039F1833089
:1001600031F0813039F18BB382238BBB089582B398
:10017000822382BB089521E001C0220F6A95EAF72D
:10018000823061F0833031F0813061F08BB3822BAB
:100190008BBB089582B3822B82BB089585B3822BDB
:1001A00085BB089588B3822B88BB089585B38223CD
:1001B00085BB089588B3822388BB0895823049F0B7
:1001C00020F4811541F068BB0895833031F462BB9F
:1001D000089565BB08956BBB0895089541155105B9
:1001E000A1F0843090F4683080F4823099F083304C
:1001F00079F0813059F486B390E002C095958795E7
:100200006A95E2F78170FA018083089589B3F4CF8B
:1002100080B3F2CF83B3F0CF6115710571F08230F6
:1002200091F030F4811559F086B3FB018083089575
:10023000833021F480B3FB0180830895089589B34E
:10024000FB018083089583B3FB018083089584308C
:10025000A0F4683090F421E001C0220F6A95EAF71B
:10026000823061F0833031F0813061F08BB38227CE
:100270008BBB089582B3822782BB089585B3822702
:1002800085BB089588B3822788BB0895CF93DF93F9
:1002900000D000D00F92CDB7DEB749835A836B836D
:1002A000272F7C838D8313BE413098F483B78F7BD7
:1002B00083BF83B7877F83BF8A8182BF89B781600D
:1002C00089BF0F900F900F900F900F90DF91CF91FB
:1002D0000895B9F0423041F1433099F783B7806413
:1002E00083BF83B7877F83BF743031F1253071F1CD
:1002F0001CBE0F900F900F900F900F90DF91CF9139
:10030000089583B78F7B83BF83B7886083BF8B815A
:100310008CBF89B7826089BF0F900F900F900F90AC
:100320000F90DF91CF91089583B7806483BF83B727
:10033000886083BF7430D1F683B78F7E83BF83B765
:10034000806283BF209364001CBED3CF83B78061DB
:10035000F5CF811521F093B7987F892B83BF08953E
:1003600083B7887F83BF089582BF08958CBF0895A7
:10037000813040F46115710531F060936200709333
:100380006300089509F0089561157105E1F3609324
:100390006000709361000895853640F49091640088
:1003A000943029F020E0953079F02CBF0895282F63
:1003B00030E0AFEFB0E00E94650224E640E050E09C
:1003C0000E9474022CBF0895282F30E0AFEFB0E0F8
:1003D0000E94650224E640E050E00E9474022095ED
:1003E0002CBF08951F920F920FB60F9211242F93D6
:1003F0003F934F935F936F937F938F939F93AF93AD
:10040000BF93EF93FF93E0916000F0916100099535
:10041000FF91EF91BF91AF919F918F917F916F91DC
:100420005F914F913F912F910F900FBE0F901F90B2
:1004300018951F920F920FB60F9211242F933F938E
:100440004F935F936F937F938F939F93AF93BF93DC
:10045000EF93FF93E0916200F09163000995FF91A3
:10046000EF91BF91AF919F918F917F916F915F912C
:100470004F913F912F910F900FBE0F901F901895A5
:10048000CF93DF930F92CDB7DEB7198260E080E0A3
:100490000E943E0041E060E081E00E945200AE0117
:1004A0004F5F5F4F60E080E00E94410089818130B2
:1004B00039F0A8F740E060E081E00E94A000EFCFB3
:1004C00041E060E00E94A000EACFA29FB001B39F8C
:1004D000C001A39F700D811D1124911DB29F700D4D
:1004E000811D1124911D0895A1E21A2EAA1BBB1B88
:1004F000FD010DC0AA1FBB1FEE1FFF1FA217B307F0
:10050000E407F50720F0A21BB30BE40BF50B661F05
:10051000771F881F991F1A9469F7609570958095C9
:1005200090959B01AC01BD01CF010895F894FFCFD8
:00000001FF
