:100000000C942A000C9447000C9447000C94470071
:100010000C9447000C9447000C9450070C947907FB
:100020000C94A2070C94CB070C9447000C94470047
:100030000C9447000C9447000C9447000C94470024
:100040000C9447000C9447000C9447000C94470014
:100050000C94470011241FBECFE5D8E0DEBFCDBF12
:1000600010E0A0E6B0E0EAEBF2E102C005900D92EC
:10007000A437B107D9F720E0A4E7B0E001C01D9292
:10008000A639B207E1F70E94F4070C944B090C94CF
:100090000000CF93DF930F92CDB7DEB7898341E0A5
:1000A00060E080E00E942D0340E061E080E00E947B
:1000B0002D03698182E00E946B0341E062E080E0F1
:1000C0000E942D038FEC97E00197F1F700C000002C
:1000D00040E062E080E00F90DF91CF910C942D031F
:1000E000CF93DF930F92CDB7DEB7898340E060E016
:1000F00080E00E942D0340E061E080E00E942D033B
:10010000698182E00E946B0341E062E080E00E942E
:100110002D038FEC97E00197F1F700C0000040E05D
:1001200062E080E00F90DF91CF910C942D0361305D
:1001300009F008950C944900613009F008950C9479
:100140007000813009F0089541E060E080E00E9495
:10015000DF0241E061E080E00E94DF0241E062E016
:1001600080E00E94DF026FEF82E00E941D032FEB10
:100170008AED90E0215080409040E1F700C00000FF
:1001800088E30E9470008FEC97E00197F1F700C0C0
:1001900000008EE00E9470008FEC97E00197F1F76D
:1001A00000C0000081E00E9470008FE99FE001978D
:1001B000F1F700C0000086E00E9470008FEC97E02D
:1001C0000197F1F700C0000008950F931F93CF939C
:1001D0008C01009771F0FC018081811551F0C0E025
:1001E000613059F0CF5FF801EC0FF11D8081811172
:1001F000F7CFCF911F910F9108950E944900CF5FD3
:10020000F801EC0FF11D80818111F7CFF2CF813021
:1002100048F029F480E4860F80680C94700080E830
:100220000C947000862F80680C9470004F925F923F
:100230006F927F928F929F92AF92BF92CF92DF92F6
:10024000EF92FF92CF936B017C01C42FC114D104B4
:10025000E104F10409F459C05CF48DE20E94490004
:10026000F094E094D094C094C11CD11CE11CF11C0A
:1002700080E090E0BC013B01EAE04E2E512C4B01A6
:100280005C01880C991CAA1CBB1C880C991CAA1C1C
:10029000BB1C860E971EA81EB91E880C991CAA1C92
:1002A000BB1CB601C7019201A3010E945408680D4E
:1002B000791D8A1D9B1D69017A01C114D104E104D5
:1002C000F104E9F600977040604089F03AE0C32EEF
:1002D000D12CE12CF12CC13041F19601A7010E94F3
:1002E0005408B901CA01009770406040A1F7CF914E
:1002F000FF90EF90DF90CF90BF90AF909F908F9046
:100300007F906F905F904F90089580E3CF91FF9022
:10031000EF90DF90CF90BF90AF909F908F907F90A5
:100320006F905F904F900C9449002AE0822E912CA0
:10033000A12CB12C9401A5010E945408D22EE32EC9
:10034000F42EC52F80E3860F0E9449006D2D7E2D6F
:100350008F2D9C2F00977040604061F7C8CF80912F
:100360007A0090917B00A0917C00B0917D00019675
:10037000A11DB11D80937A0090937B00A0937C0017
:10038000B0937D00089586B527B5922F2091740013
:10039000211113C0909379008093780010927A0015
:1003A00010927B0010927C0010927D0081E080937F
:1003B00074008EB58F7B8EBD0895909377008093E7
:1003C0007600109275008EB580648EBD89B78F7DE2
:1003D00089BF0895EF92FF920F931F93CF93DF93FE
:1003E000CDB7DEB72C970FB6F894DEBF0FBECDBFEA
:1003F000FE0131968CE0DF011D928A95E9F7E980D4
:10040000FF24F39401E011E021E03E814F81588503
:1004100069857A858B859C850E945E0480E090E0EA
:100420000E948F0682E00E9484066FEA71E083E0FA
:100430000E94280763EC71E083E00E94280741E0F6
:1004400065E083E00E94DF0240E066E083E00E9416
:10045000DF022C960FB6F894DEBF0FBECDBFDF9142
:10046000CF911F910F91FF90EF900C9456040F9332
:100470001F9310927A0010927B0010927C001092D1
:100480007D001092790010927800109277001092FF
:10049000760081E0809375001092740089B78062C5
:1004A00089BF41E065E083E00E942D038FE19EE477
:1004B0000197F1F700C0000040E065E083E00E9492
:1004C0002D0380917500811509F475C0A0E0B0E09E
:1004D000CD0106C0883A21E69207A105B10559F081
:1004E0000196A11DB11DE2E0EA95F1F700C020914F
:1004F00075002111EFCF29B72F7D29BF40917600DC
:10050000509177002091780030917900421753077D
:1005100008F442C040917600509177002091780015
:1005200030917900421B530B60E070E08A019B011F
:100530000452110921093109023B124021053105FC
:1005400030F500917A0010917B0020917C00309171
:100550007D0010979146884AD1F0980110E000E0A4
:10056000400F511F621F731FCB01BA01660F771F27
:10057000881F991F660F771F881F991FA8012DE1FB
:1005800030E00E943208C9011F910F91089580E068
:1005900090E01F910F91089540917600509177005F
:1005A000209178003091790061E070E0421B530B9C
:1005B00061097109BBCFA0E0B0E0CD019CCF8430D0
:1005C000C0F46830B0F44130A9F098F421E001C0E3
:1005D000220F6A95EAF72095823039F1833031F0A5
:1005E000813039F18AB382238ABB089581B3822393
:1005F00081BB089521E001C0220F6A95EAF782309D
:1006000061F0833031F0813061F08AB3822B8ABB94
:10061000089581B3822B81BB089584B3822B84BB60
:10062000089587B3822B87BB089584B3822384BB4C
:10063000089587B3822387BB0895823049F020F460
:10064000811541F067BB0895833031F461BB089593
:1006500064BB08956ABB089508958430C0F468307F
:10066000B0F44130A9F098F421E001C0220F6A955E
:10067000EAF72095823039F1833031F0813039F159
:100680008BB382238BBB089582B3822382BB0895F0
:1006900021E001C0220F6A95EAF7823061F08330D1
:1006A00031F0813061F08BB3822B8BBB089582B324
:1006B000822B82BB089585B3822B85BB089588B3B6
:1006C000822B88BB089585B3822385BB089588B3A8
:1006D000822388BB0895823049F020F4811541F0CF
:1006E00068BB0895833031F462BB089565BB0895FB
:1006F0006BBB089508958430A0F4683090F421E035
:1007000001C0220F6A95EAF7823061F0833031F040
:10071000813061F08BB382278BBB089582B382272F
:1007200082BB089585B3822785BB089588B382274D
:1007300088BB089541155105A1F0843090F46830CC
:1007400080F4823099F0833079F0813059F486B3A7
:1007500090E002C0959587956A95E2F78170FA015D
:100760008083089589B3F4CF80B3F2CF83B3F0CF01
:100770006115710571F0823091F030F4811559F0F6
:1007800086B3FB0180830895833021F480B3FB019D
:1007900080830895089589B3FB018083089583B30E
:1007A000FB01808308958330B1F0843019F08530E7
:1007B00009F10895643069F1653009F443C0663089
:1007C00009F447C06730A9F785B7846085BF85B74E
:1007D000886085BF0895643019F1653099F06630FE
:1007E00031F1673031F785B7816085BF85B78260A9
:1007F00085BF0895663011F16730D9F684B78064FB
:1008000084BF089585B7816085BF85B78D7F85BF1B
:10081000089585B78B7F85BF85B7877F85BF08958E
:1008200085B78E7F85BF85B78D7F85BF089585B7D6
:100830008E7F85BF85B7826085BF089584B78F7B23
:1008400084BF089585B7846085BF85B7877F85BFDE
:10085000089585B78B7F85BF85B7886085BF08956C
:10086000833049F0843019F0853049F008958BB712
:1008700080688BBF08958BB780648BBF08958BB75A
:1008800080628BBF0895833049F0843019F0853041
:1008900049F008958BB78F778BBF08958BB78F7B07
:1008A0008BBF08958BB78F7D8BBF08958FB78068FE
:1008B0008FBF08958FB78F778FBF0895EF92FF9204
:1008C0000F931F93CF93DF93CDB7DEB72C970FB65F
:1008D000F894DEBF0FBECDBFEE2DE982BF2DFA82A8
:1008E0000B831C83F22F2D83232F3E834F83588746
:1008F00069877A878B879C87F13071F1F230F9F044
:10090000B130C1F198F00130B1F018F48EB58F7BA1
:100910008EBD2C960FB6F894DEBF0FBECDBFDF9113
:10092000CF911F910F91FF90EF9008958EB58F7723
:100930008EBD013051F78EB580648EBDEACF9B85A8
:100940003C858EB58F7E8EBDE850E830C8F6F0E06D
:10095000E35BF64F0C947308942F352FAB018EB5E3
:100960008F7E8EBDE83060F6F0E0EB5AF64F8EB524
:100970000C9473088EB580688EBDC5CF88608EBD1F
:100980008FB582608FBD8FB58E7F8FBD213008F00F
:10099000A5C18FB580688FBD8FB58F7B8FBD10923D
:1009A00086001092870010928800109289001092A1
:1009B0008A0010928B0010928C0010928D001BBC4C
:1009C0001ABC8FEF80937E0081E080937F001092AD
:1009D0008000109281001092820010928300109289
:1009E0008400109285008CCF88608EBD8FB58D7F7E
:1009F0008FBD8FB581608FBD213008F040C18FB5AC
:100A000080688FBD8FB58F7B8FBD1092860010924E
:100A10008700109288001092890010928A0010922C
:100A20008B0010928C0010928D001BBC1ABC8FEFB3
:100A300080937E0010927F00CACF88608EBD8FB5F4
:100A40008D7F8FBD8FB58E7F8FBD3BBD9ABD89B722
:100A5000806189BF55CF877F8EBD8FB582608FBD86
:100A60008FB581608FBD213008F0FEC08FB58068E2
:100A70008FBD8FB58F7B8FBD10928600109287003F
:100A8000109288001092890010928A0010928B00B8
:100A900010928C0010928D001BBC1ABC8FEF8093BB
:100AA0007E0083E092CF877F8EBD8FB582608FBD41
:100AB0008FB58E7F8FBD213008F0F7C08FB580686D
:100AC0008FBD8FB58F7B8FBD1BBC1ABC8FEF809302
:100AD000860081E080938700109288001092890040
:100AE00010928A0010928B0010928C0010928D0050
:100AF00007CF877F7ACF877F8EBD8FB58D7F8FBDE4
:100B00008FB58E7F8FBD5DBD6CBD89B7846089BF99
:100B1000F7CE8860A1CF8EB588608EBD8FB582601C
:100B20008FBD8FB581608FBD213008F092C08FB529
:100B300080688FBD8FB58F7B8FBD1092860010921D
:100B40008700109288001092890010928A001092FB
:100B50008B0010928C0010928D001BBC1ABC8FEF82
:100B600080937E0032CF8EB588608EBD8FB5826057
:100B70008FBD8FB58E7F8FBD213008F08BC08FB5B4
:100B800080688FBD8FB58F7B8FBD109286001092CD
:100B90008700109288001092890010928A001092AB
:100BA0008B0010928C0010928D001BBC1ABC8FEF32
:100BB00080937E0080937F001092800010928100CD
:100BC000109282001092830010928400109285008F
:100BD00037BD96BD89B7806289BF92CE8EB58860D9
:100BE0008EBD8FB58D7F8FBD8FB58E7F8FBDF0CFC2
:100BF0008EB5877F92CF8EB5877FB7CF8EB5877F33
:100C00008EBD8FB58D7F8CCF8EB5877F8EBD8FB516
:100C10008D7F8FBD8FB58E7F8FBD213008F069C06D
:100C20008FB580688FBD8FB58F7B8FBD109286008A
:100C300010928700109288001092890010928A000A
:100C400010928B0010928C0010928D001BBC1ABC6D
:100C5000BFCF09F082CF8FB580688FBD8FB580641C
:100C60008FBD209386006BCF09F016CF8FB58068BB
:100C70008FBD8FB580648FBD20938600FFCE09F0B5
:100C8000D4CE8FB580688FBD8FB580648FBD209323
:100C90008600BDCE09F089CF8FB580688FBD8FB536
:100CA00080648FBD2093860072CF09F00DCF8FB581
:100CB00080688FBD8FB580648FBD20937E001092B9
:100CC0007F0010928000109281001092820010929A
:100CD00083001092840010928500F6CE09F06FCE4A
:100CE0008FB580688FBD8FB580648FBD20938600DF
:100CF00058CE09F0ABCF8FB580688FBD8FB58064BB
:100D00008FBD2093860094CF811521F09EB5987FEA
:100D1000892B8EBD08958EB5887F8EBD08959DBDAB
:100D20008CBD08959BBD8ABD0895AF92BF92CF92AE
:100D3000DF92EF92FF920F931F93CF93DF930F9267
:100D4000CDB7DEB7E82F8536B8F520918600309113
:100D50008700409188005091890060918A007091CD
:100D60008B0080918C0090918D00A0E00E94300952
:100D700079F5A0907E00B0907F00C0908000D09068
:100D80008100E0908200F090830000918400109137
:100D900085002E2F30E040E050E0BA01CA010E94E9
:100DA0007908F4E6AF2EB12CC12CD12C7601860146
:100DB0000E94D3081BBC2ABD0F90DF91CF911F91D9
:100DC0000F91FF90EF90DF90CF90BF90AF9008957C
:100DD00020918600309187004091880050918900D1
:100DE00060918A0070918B0080918C0090918D00B1
:100DF000A1E00E94300911F020E0DCCF80917E005C
:100E00008983B0907F00C0908000D0908100E090F6
:100E10008200F09083000091840010918500A82E3C
:100E20002E2F30E040E050E0BA01CA010E9479085C
:100E3000E4E6AE2EB12CC12CD12C760186010E94A5
:100E4000D3088981821B282FB5CF97BD86BD089511
:100E5000813040F46115710551F0609394007093F6
:100E60009500089529F0823099F0833049F0089573
:100E700061157105E1F360939200709393000895FA
:100E800061157105A1F360938E0070938F00089532
:100E90006115710561F3609390007093910008955E
:100EA0001F920F920FB60F9211242F933F934F93DF
:100EB0005F936F937F938F939F93AF93BF93EF93C2
:100EC000FF93E0918E00F0918F00309709F0099523
:100ED000FF91EF91BF91AF919F918F917F916F9112
:100EE0005F914F913F912F910F900FBE0F901F90E8
:100EF00018951F920F920FB60F9211242F933F93C4
:100F00004F935F936F937F938F939F93AF93BF9311
:100F1000EF93FF93E0919200F0919300309709F0E6
:100F20000995FF91EF91BF91AF919F918F917F9123
:100F30006F915F914F913F912F910F900FBE0F9046
:100F40001F9018951F920F920FB60F9211242F9396
:100F50003F934F935F936F937F938F939F93AF9341
:100F6000BF93EF93FF93E0919000F0919100309741
:100F700009F00995FF91EF91BF91AF919F918F91EA
:100F80007F916F915F914F913F912F910F900FBE85
:100F90000F901F9018951F920F920FB60F92112469
:100FA0002F933F934F935F936F937F938F939F9371
:100FB000AF93BF93EF93FF93E0919400F09195006E
:100FC000309709F00995FF91EF91BF91AF919F91F3
:100FD0008F917F916F915F914F913F912F910F90E2
:100FE0000FBE0F901F9018950E94EA0181E00E94A9
:100FF000A10061E080E00E94070161E080E690E0EE
:101000000E94E5002FEF80E792E021508040904061
:10101000E1F700C0000061E081E00E949C000E94B6
:101020003702EC0161E080E00E94070161E08AE69E
:1010300090E00E94E500CE010E94250760E081E07B
:101040000E940701BE0180E090E041E00E9416018D
:101050002FEF81EE94E0215080409040E1F700C0F6
:101060000000DDCFA1E21A2EAA1BBB1BFD010DC0A3
:10107000AA1FBB1FEE1FFF1FA217B307E407F50748
:1010800020F0A21BB30BE40BF50B661F771F881F24
:10109000991F1A9469F760957095809590959B01BA
:1010A000AC01BD01CF010895052E97FB1EF40094FD
:1010B0000E946B0857FD07D00E94320807FC03D03E
:1010C0004EF40C946B0850954095309521953F4F08
:1010D0004F4F5F4F089590958095709561957F4F24
:1010E0008F4F9F4F0895EE0FFF1F0590F491E02D55
:1010F0000994DF93CF931F930F939A9DF02D219F17
:10110000F00D8B9DF00D8A9DE02DF10D039FF00DEC
:10111000029FE00DF11D4E9DE00DF11D5E9DF00D55
:101120004F9DF00D7F936F93BF92AF925F934F935C
:10113000D5010E943C098B01AC01D7010E943C09FA
:10114000EB01E80FF91FD6010E94C8082F913F91CB
:10115000D6010E943C09C60FD71FE81FF91FAF91A7
:10116000BF910E94C8082F913F910E943C09C60F71
:10117000D71FE81FF91FD6010E943C09E60FF71F91
:101180009801BE01CF010F911F91CF91DF9108957A
:101190000E943C09460F571FC81FD91F08F43196FB
:1011A0000895689401C0E8948F929F92CF93DF9343
:1011B0000E94DF08DF91CF919F908F90089588243F
:1011C0009924F401E401B0E49F93AA279A158B04B3
:1011D0009C04ED05FE05CF05D007A10798F4AD2FBF
:1011E000DC2FCF2FFE2FE92D982C892E982F872FBB
:1011F000762F652F542F432F322F2227B85031F7E7
:10120000BF9127C01B2EBF91BB27220F331F441F46
:10121000551F661F771F881F991F881C991CEE1F7A
:10122000FF1FCC1FDD1FAA1FBB1F8A149B04EC05E8
:10123000FD05CE05DF05A007B10748F08A189B0819
:10124000EC09FD09CE09DF09A00BB10B21601A944E
:10125000E1F62EF49401AF01BE01CD01000C08951A
:101260000024A7FD00942A173005400550056005AD
:101270007005800590050895A29FB001B39FC0013D
:10128000A39F700D811D1124911DB29F700D811DB2
:101290001124911D0895F894FFCF0406FE05FB0567
:1012A000F805EE058004B3058B057B05790553052C
:0A12B0002B051D05F404BE0489059A
:1012BA007265616420756C74730064697374616E1D
:0412CA0063653A001E
:00000001FF
