:100000000C942A000C9447000C9447000C94470071
:100010000C9447000C9447000C9447000C94470044
:100020000C9447000C9447000C9447000C94470034
:100030000C9447000C942E030C9482030C945903E7
:100040000C9447000C9447000C9447000C94470014
:100050000C94470011241FBECFE5D8E0DEBFCDBF12
:1000600010E0A0E6B0E0E6E3F8E002C005900D92F3
:10007000A437B107D9F720E0A4E7B0E001C01D9292
:10008000A638B207E1F70E94AB030C9412040C945B
:100090000000EF92FF920F931F93CF93DF93CDB7A2
:1000A000DEB72B970FB6F894DEBF0FBECDBF40E092
:1000B00060E083E00E94C80041E061E083E00E94CC
:1000C000C8008BE0E0E6F0E0DE01119601900D92B1
:1000D0008A95E1F7E980FA800B811C812D813E81B0
:1000E0004F81588569857A858B850E94BC012FEFE9
:1000F00084E39CE0215080409040E1F700C0000084
:100100008BE690E00E94A9022FEF84E39CE021504F
:1001100080409040E1F700C000002B960FB6F894A5
:10012000DEBF0FBECDBFDF91CF911F910F91FF902A
:10013000EF9008950C949802CF93DF930F92CDB770
:10014000DEB7498341E00E94C80089818093740032
:100150000F90DF91CF91089590917400913019F034
:10016000923021F0089541E00C94160140E00C9487
:10017000160190917400913019F0923021F0089599
:1001800040E00C94160141E00C9416010C946401BB
:100190008430C0F46830B0F44130A9F098F421E024
:1001A00001C0220F6A95EAF72095823039F1833039
:1001B00031F0813039F18AB382238ABB089581B34B
:1001C000822381BB089521E001C0220F6A95EAF7DE
:1001D000823061F0833031F0813061F08AB3822B5C
:1001E0008ABB089581B3822B81BB089584B3822B8F
:1001F00084BB089587B3822B87BB089584B3822381
:1002000084BB089587B3822387BB0895823049F069
:1002100020F4811541F067BB0895833031F461BB50
:10022000089564BB08956ABB089508958430C0F4AE
:100230006830B0F44130A9F098F421E001C0220FF9
:100240006A95EAF72095823039F1833031F08130B8
:1002500039F18BB382238BBB089582B3822382BB97
:10026000089521E001C0220F6A95EAF7823061F01B
:10027000833031F0813061F08BB3822B8BBB0895DA
:1002800082B3822B82BB089585B3822B85BB0895F0
:1002900088B3822B88BB089585B3822385BB0895DC
:1002A00088B3822388BB0895823049F020F48115F9
:1002B00041F068BB0895833031F462BB089565BB9B
:1002C00008956BBB089508958430A0F4683090F4CD
:1002D00021E001C0220F6A95EAF7823061F0833095
:1002E00031F0813061F08BB382278BBB089582B3EC
:1002F000822782BB089585B3822785BB089588B382
:10030000822788BB089541155105A1F0843090F4EF
:10031000683080F4823099F0833079F0813059F47C
:1003200086B390E002C0959587956A95E2F7817053
:10033000FA018083089589B3F4CF80B3F2CF83B3F9
:10034000F0CF6115710571F0823091F030F48115B4
:1003500059F086B3FB0180830895833021F480B384
:10036000FB0180830895089589B3FB01808308957C
:1003700083B3FB0180830895EF92FF920F931F9345
:10038000CF93DF93CDB7DEB72B970FB6F894DEBFD0
:100390000FBECDBFBE2DE982AF2DFA82E02F0B83B9
:1003A000912F1C83F22F2D833E834F8358876987BB
:1003B000172F7A87082F8B874E815F816885798513
:1003C000E0927500F0927600E093770090937800C9
:1003D0002093790040937A0050937B0060937C00D7
:1003E00070937D0010937E0080937F0080ECB1308D
:1003F00009F080E8E13009F47CC0E23009F460C023
:10040000A13009F461C0913068F059F0923009F4DC
:100410007DC0933009F472C0973029F48660529AF7
:1004200002C08260529880BDF13008F03FC05998F8
:10043000440F551F661F771F440F551F661F771FF8
:100440009A01AB01220F331F441F551F220F331F88
:10045000441F551F60E072E18AE790E00E94EA03C2
:1004600021503109922F832F99B980BD5798569802
:1004700055981150173048F4E12FF0E0EC5EFB4F37
:100480000C940C04569A579A559A013098F4549A41
:1004900053982B960FB6F894DEBF0FBECDBFDF91F9
:1004A000CF911F910F91FF90EF90089579F080E028
:1004B00090E0DACF01F1023061F7549A539AE9CF14
:1004C0008063A13009F09FCF88609DCF599A9A012F
:1004D000AB01220F331F441F551F220F331F441F30
:1004E000551F220F331F441F551FB4CF579A569ADA
:1004F000CCCF806285CF539A5498CBCF86605298E8
:1005000092CF579AC2CF569A559ABFCF84605298CD
:100510008ACF9C015D9BFECF80917800873011F0DF
:100520002CB90895509830FFFBCF509A2CB90895FC
:100530005F9BFECF80917800873029F080E090E0CB
:100540002CB1822B0895882751998395880F990B98
:10055000F7CFDC01892B91F09C91911579F020E087
:100560005D9BFECF9CB92F5F8AE18A95F1F700C0B1
:10057000FD01E20FF11D90819111F2CF0895DC0190
:10058000892B09F15F9BFECF8091780020E08730B6
:10059000D9F04CB1242B2C93621701F190E09F5FAE
:1005A0005F9BFECF20E0873029F4222751992395C5
:1005B000220F330B4CB1FD01E90FF11D242B2083D9
:1005C0006213EDCF10820895222751992395220FAF
:1005D000331F4CB1242B2C936213E0CFFD0110820A
:1005E00008956115710579F0FC01680F791F9091EC
:1005F000780081915D9BFECF973009F450988CB9BB
:10060000E617F707B1F70895549A0895539A089595
:1006100054980895539808950895579A0895569AAE
:100620000895559A0895579808955698089555989D
:100630000895009721F08093840090938500089599
:10064000009721F080938200909383000895009793
:1006500021F0809380009093810008951F920F9263
:100660000FB60F9211242F933F934F935F936F9385
:100670007F938F939F93AF93BF93EF93FF93E091FB
:100680008400F0918500309719F080E090E00995A2
:10069000FF91EF91BF91AF919F918F917F916F915A
:1006A0005F914F913F912F910F900FBE0F901F9030
:1006B00018951F920F920FB60F9211242F933F930C
:1006C0004F935F936F937F938F939F93AF93BF935A
:1006D000EF93FF93E0918200F0918300309709F04F
:1006E0000995FF91EF91BF91AF919F918F917F916C
:1006F0006F915F914F913F912F910F900FBE0F908F
:100700001F9018951F920F920FB60F9211242F93DE
:100710003F934F935F936F937F938F939F93AF9389
:10072000BF93EF93FF93E0918000F09181003097A9
:1007300009F00995FF91EF91BF91AF919F918F9132
:100740007F916F915F914F913F912F910F900FBECD
:100750000F901F90189541E060E080E00E949C009F
:1007600041E061E080E00E949C0041E062E080E0C6
:100770000E949C000E9449000E949A0083379105C4
:10078000D1F080379105E1F087379105F1F081369E
:10079000910591F760E080E00E94B90061E080E09F
:1007A0000E94B90062E080E00E94B9000E949A00B5
:1007B0008337910531F760E080E00E94AC00DCCF28
:1007C00061E080E00E94AC00D7CF62E080E00E9450
:1007D000AC00D2CFA1E21A2EAA1BBB1BFD010DC09B
:1007E000AA1FBB1FEE1FFF1FA217B307E407F507E1
:1007F00020F0A21BB30BE40BF50B661F771F881FBD
:10080000991F1A9469F760957095809590959B0152
:10081000AC01BD01CF010895EE0FFF1F0590F491CB
:10082000E02D0994F894FFCF81027702440276020A
:06083000430283024202B4
:10083600000000030080250000000277656C636FEE
:040846006D650D00CF
:00000001FF
